:0A00000002158FAD077F02020A48C7
:10000B000207A21202E3FF600C121D46740129F9CC
:06001B00E43AFA80EE2237
:100023000218CA0202CEE86480F8E933E8336011AB
:100033000460F0ED33EC337009E8FCE9FDEAFEEB14
:10004300FF220460DED3EB9FEA9EE99DE8C2E78CC2
:10005300F0C2F795F0400CE8CCF8E9CDF9EACEFA16
:10006300EBCFFB12029985D0F05804700320D5B36F
:10007300E80470075002B2D50202D892D5EC0460AE
:10008300F7E4CCC0E0C398F8603B94186008400DD7
:10009300D0E0FB0202B0E4FBFAC9FC8028E830E4BC
:1000A30006E4C9FBE4CAFCE830E305E4C9CACBFCB7
:1000B300E854076010F8C3E913F9EA13FAEB13FBEA
:1000C300EC13FCD8F130F52FC3E49CFCEF9BFFEE5F
:1000D3009AFEED99FDD0E0FBEF4E4D4C701222DB02
:1000E300030202D5EC2CFCEF33FFEE33FEED33FDC0
:1000F300ED30E7EB0202B0EF2BFFEE3AFEED39FDF8
:10010300D0E0FB50130BBB00030202D8ED13FDEE4E
:1001130013FEEF13FFEC13FC0202B0EC4D6011E889
:10012300497017ED33EC3304600DE4FCFFFEFD2250
:10013300E933E8330470F80202CE120299580460DE
:1001430009E4CC248150062850090202D828400330
:100153000202D5C0E0EB4A7044B98006D0E0FB024E
:1001630002C4EF4E701CBD8008EBFFEAFEE9FD8080
:10017300EBE98DF0A4FEE5F0020207E9CDF9EAFE12
:10018300EBFFEF89F0A4FCE5F0CE89F0A42EFFE4A9
:1001930035F0CD89F0A42DFEE435F08067EF4E7085
:1001A30005BD80D780C3EF8BF0A4ACF0EE8BF0A439
:1001B3002CFCE435F0F8EF8AF0A42CE5F038FCE4ED
:1001C30033CB8DF0A42CFCE5F03BF8EE8AF0A42CA5
:1001D300FCE5F038F8E433CF89F0A42CFCE5F038E3
:1001E300CF3400CE89F0A42FFFE5F03EFEE433C9FF
:1001F3008DF0A42EFEE5F039CD8AF0A42FFFE5F0B3
:100203003EFEE43DFD33D0E0FB50070BBB000F0285
:1002130002D8EC2CFCEF33FFEE33FEED33FD02028C
:10022300B075F020800E75F010800575F0087D0024
:100233007E007F003392D530D5031203D8EC3340D0
:1002430010EF33FFEE33FEED33FDEC33FCD5F0ED71
:1002530022E5F0247EA2D513CC92E7CDCEFF22ED8A
:10026300D2E7CD33EC3392D524814006E4FFFEFD83
:10027300FC22FCE4CFCECDCC24E0501174FF80ED02
:10028300C3CC13CCCD13CDCE13CECF13CF0470F08C
:1002930030D5DE0203D8E9D2E7C933E833F892D583
:1002A300EDD2E7CD33EC33FC5002B2D522EC30E78C
:1002B300100FBF000C0EBE00080DBD00040BEB6059
:1002C30014A2D5EB13FCED92E7FD2274FFFCFDFEB7
:1002D300FF22E480F8A2D574FF13FC7D80E480EF55
:1002E300BB010689828A83E0225002E722BBFE0219
:1002F300E32289828A83E49322BB010CE58229F5F8
:1003030082E5833AF583E0225006E92582F8E62266
:10031300BBFE06E92582F8E222E58229F582E58320
:100323003AF583E49322BB010689828A83F0225043
:1003330002F722BBFE01F322EF8DF0A4A8F0CF8CCD
:10034300F0A428CE8DF0A42EFE22BC000BBE002903
:10035300EF8DF084FFADF022E4CCF875F008EF2FB9
:10036300FFEE33FEEC33FCEE9DEC984005FCEE9D76
:10037300FE0FD5F0E9E4CEFD22EDF8F5F0EE842092
:10038300D21CFEADF075F008EF2FFFED33FD4007F3
:10039300985006D5F0F222C398FD0FD5F0EA22C299
:1003A300D5EC30E709B2D5E4C39DFDE49CFCEE3007
:1003B300E715B2D5E4C39FFFE49EFE12034DC3E4E9
:1003C3009DFDE49CFC800312034D30D507C3E49FDD
:1003D300FFE49EFE22C3E49FFFE49EFEE49DFDE452
:1003E3009CFC22121B5B7A1679361207257A167942
:1003F3004875480C7D04E4FF121A3F7BFF7A167997
:100403004D75480C7D047F41121A3F900052E06005
:100413000302052090004AE0B401087BFF7A1679B5
:1004230052801390004AE07BFFB402067A16795D8E
:1004330080047A16796875480C7D06E4FF121A3F2A
:10044300900023E0705312077C6003020510D390E1
:100453000050E090004F1210C74005120699800625
:100463001206AE1210DE120FC91206FB7A1679734A
:100473001207921210BF400512075F80031206CACB
:10048300120FC97D047F281217AA121120400512EA
:1004930006E6806F120743806A12077C706FF53E91
:1004A30090004F120FDB1210DED39400EE648094A1
:1004B30080400512069980061206AE1210DE120F56
:1004C300C91206FB7A16797512079290004D120F26
:1004D300DBEE1210B090004B120FDBEE1211041280
:1004E30010BF400512075F80031206CA120FC97DB1
:1004F300047F281217AA12112040051206E6800372
:10050300120743120FC97D047F691217AA121161E2
:100513007F32121A3F7FC812000302040E121B5BC4
:100523007A1679771207257A16797C75480C7F102D
:100533001207747A16798175480C7F481207747A0A
:1005430016798675480C7D067F10121A3F7BFF7A59
:1005530016798975480C7D067F480206799000520A
:10056300E0640160030203E61211617F38121A3F4F
:100573007BFF7A16798C75480C7D047F04121A3F31
:100583007BFF7A16798E75480C7D067F04121A3F1D
:100593001210041211784012754F0C7B2B12078A2C
:1005A300121004E0FEA3E0FF800E754F0C7B2D12AA
:1005B300078A12100412114D120FC97D067F2812EB
:1005C30017AA1210141211784016754F0C7B2B7D4D
:1005D300067F581219B5121014E0FEA3E0FF801233
:1005E300754F0C7B2D7D067F581219B5121014120E
:1005F300114D120FC97D067F601217AAE50EC313B2
:10060300FB7A0075470175480CE4FD7F281217AA91
:1006130074101211307F311217AA74111211307F26
:10062300691217AA7F96120003900008E0FF640383
:100633006004EFB4060AEF1210287A167990801935
:100643001211596004EFB408091210247A16799232
:1006530080071210247A16799775480C121A3F7F77
:1006630096120003900049E070127BFF7A16799A84
:1006730075480CFD7F67121A3F020560121119605D
:10068300030205607BFF7A16799E75480CFD7F6730
:10069300121A3F020560754F0C7B2BE4FD7F341269
:1006A30019B590004FE0FEA3E0FF22754F0C7B2DA0
:1006B300E4FD7F341219B590004FE0FEA3E0FF7C08
:1006C300FF7DFF12033B22754F0C7B2D7D047F20A2
:1006D3001219B590004DE0FEA3E0FFC3E49FFFE4D1
:1006E3009EFE22754F0C7B2B7D047F611219B59002
:1006F300004BE0FEA3E0FF22E4FD7F3C1217AA902B
:10070300004FE0FEA3E0FF7C007D641203A2AA0475
:10071300AB0575470275480CE4FD7F5E1217AA7B93
:10072300FF227BFF75480CE4FDFF121A3F7BFF7A23
:1007330016794275480C7D02E4FF121A3F7BFF22B3
:10074300754F0C7B2D7D047F611219B590004BE032
:10075300FEA3E0FFC3E49FFFE49EFE22754F0C7BE4
:100763002B7D047F201219B590004DE0FEA3E0FF1E
:10077300227D04121A3F7BFF227D0A7F03120A485F
:100783008F3EE53E6404227D067F201219B5227553
:10079300480CE4FD7F76121A3F22C2AF80FE32126C
:1007A30007A185D00B75D008AAE0C28CE58A241F67
:1007B300F58AE58C34FCF58CD28CEC247AF8E6BC13
:1007C300070274FFC39581B4140040CE7908786999
:1007D30016E608700BC2AFE630E1034418F6D2AF59
:1007E30008D9EDEA8BD030070122D50DFCC0E0C05B
:1007F300D0C0F0C083C082C000C001C002C003C02B
:1008030004C005C006C007E50C23246AF87440C27F
:10081300AF46F6D2AFD207E50CFF23246AF80F08E0
:1008230008BF08047F00786AE630E4F200E50CC3F1
:100833009F5020050C7479250CF8E6FDA68108E687
:10084300AE0CBE070274FFCDF8E86D60E008E6C0A9
:10085300E080F6E50CD39F4027E50C247AF8E6AE5A
:100863000CBE070274FFFD18E6CDF8E5816D600646
:10087300D0E0F61880F5E50C2479C8F6150C80D382
:10088300750D64E50C23246AF87F04C2AFE610E615
:100893001E30E00310E20C7F0030E10730E3047FF9
:1008A3000854F4547CC6D2AF54804207C20722F6E0
:1008B300D2AFD007D006D005D004D003D002D001E8
:1008C300D000D082D083D0F0D0D0D0E0C20722783D
:1008D30079A68174076006FF0876FFDFFB7F08E4D3
:1008E3007869F608F608DFFA786A7630901D0A749C
:1008F3000193C0E0E493C0E0750D64438901758AF8
:1009030018758CFCD28CD2AFD2A92207EFD39407EF
:1009130040037FFF22746A2F2FF8E620E5F4C2AF6D
:10092300E64430F6D2AFAE0CEEC39F50210E74797D
:100933002EF8E6F908E618BE070274FFFDED6960BC
:100943000909E71919F7090980F3161680DAEED3B6
:100953009F400405810581EED39F402274792EF8D0
:1009630008E6F9EEB50C02A981180606E6FDED6965
:1009730060091919E70909F71980F31E80D9EF24D3
:1009830079F8E604F8EF2F04901D0A93F608EF2F89
:1009930093F67F0022EFD3940740037FFF22EF23D8
:1009A300246AF8E630E5F4C2AFE6548CF6D2AFE53C
:1009B3000CB5070A74792FF8E6F581020818502E52
:1009C300747A2FF8E6BF070274FFFD18E6F974790D
:1009D3002FF8FBE6FCE96C6008A805E7F61D198013
:1009E300F4A803A6051FE50CB507E37F0022747A7C
:1009F3002FF8E6FD1886010F74792FF8A6010886F3
:100A030004E50CB50702AC81ED6C60080D09A8057F
:100A1300E6F780F4E50CB507DE89817F0022EFD38A
:100A2300940740037FFF22EF23246AF8C2AFE63026
:100A3300E50530E002D2E4D2E2C6D2AF7F0030E275
:100A4300010F0207EC8FF0E4FFFEE50C232469F8A5
:100A5300C2A930F70D7F08E6600B2DF660325030E7
:100A6300800730F106EDF660277E020830F010C2F1
:100A7300AFE610E7250E30E20CD2AF7F048014C23C
:100A8300AFE610E71554EC4EF6D2AFD2A902081820
:100A93007F0808EF4483F4C2AF56C6D2AFD2A9543D
:100AA300804FFF22E51620E703020CF6E4F51690CB
:100AB300002BE064476003020B8BA3E0B453097B74
:100AC300017A00795312000E90002CE06454600305
:100AD300020B5690004FE0FAA3E0FB7C277D10FF4A
:100AE300AE02121112900064F07C277D10AF03AEAA
:100AF300021203A27E037FE812110CA3F090004FB1
:100B0300A3E07C037DE8FFAE021203A27E007F64B4
:100B130012110C900066F07C007D64AF03AE0212EC
:100B230003A212116D900068F090004FE0FEA3E065
:100B3300FF12116D900069F0900067742EF0900021
:100B43006A7443F0A3740AF0E4F07B017A007964D9
:100B530012000E90002CE0645A702D900051E0704A
:100B6300087BFF7A16791B801C900051E0B40108C2
:100B73007BFF7A167924800D900051E0B402097B43
:100B8300FF7A16792D12000E90002BE06453600358
:100B9300020CF6A3E06454703C90002E12114090B6
:100BA300002DF07B017A00792D7562067F04121DFA
:100BB3002990002D120D0C9000311211409000303D
:100BC300F07B017A0079307562017F03121D299051
:100BD3000030120D0C90002CE06444705390002EF2
:100BE30012107DF51090003112107DF51190003434
:100BF30012107DF51290003712107DF51390003A14
:100C030012107DF51490003D12107DF515E490004F
:100C13006DF090006DE0FF2410F8E6FD121C537F89
:100C2300FA12000390006DE004F0E0C3940640E282
:100C330090002CE064536003020CF690002EE0F960
:100C4300642B7007120F8C7D64800CE9642D701681
:100C5300120F8C7CFF7D9C12033B900038E0121036
:100C6300E7EEF0A3EFF0900033E0F9642B7012127B
:100C730010897D6412033B900036120FB57D6480AA
:100C83001DE9642D70271210897D6412033BEF2B3D
:100C9300FFEE3AFE900036120FBB7CFF7D9C1203E1
:100CA3003B900038E01210F3EEF0A3EFF090003821
:100CB300E0FF1210E7A3E0FDEF25E024A6120CFEEF
:100CC300FC1210E7E0FFAD07EC25E024A7120CFEB1
:100CD300FF1210F3A3E0FDEF25E024AC120D1990F1
:100CE3000038E0FC1210F3E0FFAD07EC25E024AD83
:100CF300120D197FC8120003020AA7FF121C537FAB
:100D030064120003900038E022E4F07FC81200036D
:100D13007FC812000322FF121C537F6412000322B8
:100D2300E4F53B1216A28F0FE50FB40B129000529D
:100D3300E07F0070027F01900052EFF0020F84E524
:100D43000FB40C0D900049E004F0E05401F0020FE1
:100D530084E50F640D70301211196015900008E0DE
:100D6300C3648094835003020F84E024FDF0020FD8
:100D7300841211596008EF64086003020F84900025
:100D8300107401F0020F84E50F640E704590005259
:100D9300E0700F900023E07F0070027F019000233A
:100DA300EFF01211196015900008E0D36480948568
:100DB3004003020F84E02403F0020F8412115960F0
:100DC30008EF64086003020F8490001074FFF002C0
:100DD3000F84E50FB40F1F1211197003020F8490D3
:100DE3000008E014F0E0C3648094804003020F84A1
:100DF3007408F0020F84E50FB4101E12111970036A
:100E0300020F84900008E004F0E0D36480948850DB
:100E130003020F84E4F0020F84E50F6401701F9056
:100E23000049E0B40115E4F53B1210B8B428057687
:100E330001020F7F053BE53BB403EE020F7FE50F95
:100E43006402701E900049E0B40114E4F53B1210F3
:100E5300B8B4280476028007053BE53BB403EF02F0
:100E63000F7FE50F6403701E900049E0B40114E4A2
:100E7300F53B1210B8B4280476038007053BE53B25
:100E8300B403EF020F7FE50F6404701E900049E086
:100E9300B40114E4F53B1210B8B4280476048007B7
:100EA300053BE53BB403EF020F7FE50F6405701EBE
:100EB300900049E0B40114E4F53B1210B8B42804DF
:100EC30076058007053BE53BB403EF020F7FE50F93
:100ED3006406701E900049E0B40114E4F53B12105F
:100EE300B8B4280476068007053BE53BB403EF025C
:100EF3000F7FE50F6407701D900049E0B40114E40F
:100F0300F53B1210B8B4280476078007053BE53B90
:100F1300B403EF8067E50F6408701D900049E0B4E7
:100F23000114E4F53B1210B8B428047608800705D1
:100F33003BE53BB403EF8044E50F6409701D90006B
:100F430049E0B40114E4F53B1210B8B4280476095F
:100F53008007053BE53BB403EF8021E50F640A708E
:100F630020900049E0B40114E4F53B1210B8B42812
:100F730004E4F68007053BE53BB403EF7F07120A61
:100F8300217F32120003020D26900030E024D0FFAF
:100F9300E434FFFE7C007D0A12033BAA06AB0790F4
:100FA300002FE024D0FFE434FFFE7D6412033B9066
:100FB3000031EF2BFFEE3AFEE024D0FDEC34FFCD01
:100FC3002FFFED3EFE227C007D641203A2AA06AB36
:100FD3000775470375480C22E0FCA3E0FDEC120201
:100FE300297B667A6679E6783F12011EE4FBFA797B
:100FF30048784512002D8F428E418D408C3F02026E
:1010030062E50EC31325E02400F582E43400F58382
:1010130022E50EC31325E0245CF582E43400F58356
:1010230022900008E0FD3395E0FC74112DF58274E5
:10103300003CF583E0FF741A2DF58274003CF583C0
:10104300E0FD7BFF22E51875F00AA4FDACF0E5177F
:1010530075F064A42DFFE5F03CFE7C00EF2519FF3D
:10106300EC3EFE7D6412033B900010E0FD3395E0FF
:10107300FC12033BE50EC313FD22E075F00AA4FF47
:10108300A3E02F24F022900035E024D0FFE434FFC6
:10109300FE7C007D0A12033BAA06AB07900034E0F6
:1010A30024D0FFE434FFFE22E0FFA3E0CF90004D05
:1010B300F0A3EFF0227417253BF8E622D390004EFD
:1010C300E090004D9400E06480948022FDC4540FAE
:1010D3002430F0ED540F2430A3F02290004FEEF0B3
:1010E300A3EFF02225E024A0F582E434FFF5832268
:1010F30025E024FCF582E434FFF58322E0FFA3E03E
:10110300CF90004BF0A3EFF022CFCDCFCECCCE12B9
:1011130003A2EF243022900049E0640122D390001F
:101123004CE0940090004BE06480948022250EF8FC
:10113300E6FB7A0075470275480C7D0422E024D053
:10114300C454F0FFA3E024D02F22E0FEA3E0FF7CF1
:10115300FF7DFF02033B900008E0FF6407227B0151
:101163007A00795375480C7D02227C007D0A1203B4
:10117300A2ED243022E0FEA3C3EE64809480229F7C
:10118300EE6480F8EC64809822E51775F00AA425D4
:1011930018FF22900049E0700A7F0378177428F63D
:1011A30008DFFC7DFA7F03120A48900049E0B4018E
:1011B300E2EF640460030212F0900008E0FFD364DE
:1011C300809482504DE518642870030212F0E517ED
:1011D300C454F02518FEEFFD3395E0FCC374029D63
:1011E300FDE49CFC74242DF58274003CF583EEF041
:1011F300C374049FFF74242DF974003CFA7B0175BA
:101203006207121D29E4900049F07FE812000302EF
:1012130012F0900008E064047026E5186428700357
:101223000212F012118C7410250EF8A60774102503
:101233000EF8E6FDAF0E121C537FC812000380297F
:10124300900008E064057025E51864287003021215
:10125300F012118C7411250EF8A607E50E04FF7425
:1012630011250EF8E6FD121C537FC8807890000804
:10127300E064077032E51964286072121048121096
:1012830008EEF0A3EFF0ED121008A3E0FDE50E2445
:1012930006121326120003121004E0FFAD07E50E39
:1012A3002407121326803E900008E06408703EE590
:1012B3001964286038121048121018EEF0A3EFF0EA
:1012C300ED121018A3E0FDE50E240CFF121C537F52
:1012D30064120003121014E0FFAD07E50E240DFFA6
:1012E300121C537F64120003E4900049F09000083D
:1012F300E0FFB40313E50EC394024004150E150E6C
:10130300E4900049F0021196EF640660030211961F
:10131300E50EC394045004050E050EE4900049F055
:10132300021196FF121C537F64227D967F03120ADB
:1013330048900052E07057EF6404705290004DE003
:10134300FEA3E0FFA3E0FCA3E0FDD3121182401053
:10135300755D01B280A37402F090004A14F0802EF0
:1013630090004BE0FEA3E0FFC3ED12118250127513
:101373005D02C2809000517401F090004A04F08035
:101383000DE4F55DD280900051F090004AF0E55DE8
:10139300B40104B280800BE55DB40204C280800214
:1013A300D28090000BE0FFC4540F75F00AA4FEEF47
:1013B300540F2EF55CE510D3955C5012E511C395DF
:1013C3005C400B9000001210AB90005C802FE51284
:1013D300D3955C5012E513C3955C400B9000021249
:1013E30010AB90005E8016E514C3955C5015E515AF
:1013F300955C400F9000041210AB9000601210FF38
:1014030002132D9000061210AB9000621210FF021F
:10141300132D121727121C9CE4F521AF21121BF880
:1014230074102521F8A6070521E521C3940640EB96
:10143300E4F521E521C39405502DE5212407FF128E
:101443001BF8EF7F00FEC006C007E5212406FF124C
:101453001BF8EFFDD0E02DFFD0E03400FEE52112B4
:1014630010061214CB80CCE4F521E521C39405507A
:101473002DE521240DFF121BF8EF7F00FEC006C0EF
:1014830007E521240CFF121BF8EFFDD0E02DFFD060
:10149300E03400FEE5211210161214CB80CC7F013C
:1014A30012090F7F0212090F7F0312090F7F041223
:1014B300090F7F0512090F7F0612090F7F07120913
:1014C3000FE4FF12099880FEEEF0A3EFF07F6412A1
:1014D30000030521052122B2A0E4FB7D017F9012C8
:1014E3001B2A7F141200037B007A007922E4FD7F1C
:1014F30090121D52E522FE7C00E42523FFEC3EFE04
:1015030090004FF0A3EFF07D101203A21210DED370
:101513009440EE64809486400C90004F7406F0A3D0
:101523007440F08016D3900050E0940190004FE097
:10153300648094805005E4F0A304F090004FE0FC35
:10154300A3E0FDEC120229E4FBFA795C7841120175
:101553001EE4FBFA79FA78C412002D8F278E268DAC
:10156300258C241202621210DE7F04120A217F06E8
:10157300120A211215841215847FC8120003021463
:10158300DA7FC81200037FC812000322787FE4F6D3
:10159300D8FD7581800215D60208D2E493A3F8E43E
:1015A30093A34003F68001F208DFF48029E493A3B8
:1015B300F85407240CC8C333C4540F4420C88340D1
:1015C30004F456800146F6DFE4800B0102040810A0
:1015D300204080901814E47E019360BCA3FF543F25
:1015E30030E509541FFEE493A360010ECF54C025D8
:1015F300E060A840B8E493A3FAE493A3F8E493A3C8
:10160300C8C582C8CAC583CAF0A3C8C582C8CAC52B
:1016130083CADFE9DEE780BED4CBD0D0CEC8B6A87C
:1016230000B5CDD3DACFC2CFDE00B8DFD3DAC9CF6E
:10163300CFDE0054454D503A20202020202E005468
:10164300494D453A004D41583A004D494E3A0054F0
:10165300454D50204F564552210054454D502020B2
:101663004C4F57210054454D5020204E4F522100DE
:10167300430046005345543A005354413A00454E03
:10168300443A00533A00583A002B002D0020002022
:10169300202020002020004F4B2100494E4700E42A
:1016A300F53C75900FE590640F60737F0A12000399
:1016B300E590640F606B75900FAF90EF24F56010A9
:1016C30024FE601114601324077012753D01800D10
:1016D300753D028008753D038003753D047590F0E8
:1016E300AF90EF2450601124E0601124F0601124C6
:1016F300707013853D3D800E74048006740880026B
:10170300740C253DF53DC3E53C648094B25012E56D
:101713009064F0600C7F0A120003053C80E8E4F556
:101723003DAF3D22E4FDFC7FAE121ACCFF121ACC72
:101733007F10121ACC7F40121ACC7FB0121ACC7FC2
:1017430081121ACC7FFF121ACC7FA1121ACC7FA66A
:10175300121ACC7FA8121ACC7F3F121ACC7FC81260
:101763001ACC7FD3121ACCFF121ACC7FD5121ACC03
:101773007F80121ACC7FD8121ACC7F05121ACC7F25
:10178300D9121ACC7FF1121ACC7FDA121ACC7F123B
:10179300121ACC7FDB121ACC7F30FE121CD9121A1C
:1017A300BE7FAFFE021CD98F438D448A458B46E42E
:1017B300F54BF549E549C395475055C3E547954969
:1017C30014FD7F0A121C84AC45AD46CFCDCFCECCE1
:1017D300CE12034D7C007D0A12034D8D4AE54B70FA
:1017E3001BE54714FFE549C39F5011E54A700A12F0
:1017F3001AEC85484F7B20800E754B01121AECE5DD
:101803004A2430FB85484FAD441219B5054980A4DD
:101813002241004A004100520041005100031728B1
:10182300282842004D271042004B000048000007C3
:10183300D00FA01770271048005C0000FE0CF83092
:10184300000041001001490011385068042F67045B
:10185300205849001A020202040404060606410045
:101863000800010E000610080C0C0E0E12007B017E
:101873007A0079097555077F0212192090000BE051
:101883009000531210CF90000AE09000561210CF30
:10189300900009E0FDC4540F24309000591210D574
:1018A300900055743AF0900058F0E490005BF01209
:1018B30018BF1218BF7FC812000380B27FC812007E
:1018C300037FC812000322C0E0C083C082C0D0756A
:1018D300D000C00730983BC298AF99E51620E73295
:1018E30030E60CEF640A600280254316808023BF34
:1018F3000D05431640801BE516543F242BF582E467
:101903003400F583EFF00516E516D3941D400375F7
:101913001600D007D0D0D082D083D0E032AD078B71
:10192300528A53895485555B7FA212196B9203AB7C
:1019330052AA53A9541202E3547F121C43240112E6
:101943001C4B547F121C432402121C392403121C07
:10195300392404121C4B5407121C432405121C4B3C
:10196300541F120329A20322AC07121CB2121A82BB
:10197300200602C322AF05121A82200602C32212D6
:101983001CB2EC04FF121A82200602C322E4FDE516
:101993005B14FFEDC39F500D121CF3C204121C6CA9
:1019A300121CEA80EA121CF3D204121C6C121CC82B
:1019B300D322E4F550F9EB24E0F550EFD3947F40C4
:1019C30004E4FF0D0DE54F6410602F121BAEE4F924
:1019D30075F006E550A4248DF582E5F0341DF583FA
:1019E300E58229F582E43583F583E493FF7E007D68
:1019F300017C00121CD909B906D622AD07E4FBFA13
:101A0300EDC4131313540124FF9285ED25E0FD1259
:101A13001D38C284121D3D0BBB08E5D285121D3D46
:101A2300D28430850F0AEAD394C840F6C284121DCB
:101A33003D7F0022C284121D3D7F01228F438D44CE
:101A43008B458A468947E4F549AB45AA46A94785AC
:101A530049827583001202FCFB602085484FAD4428
:101A6300AF431219B574082543F543D3947840075F
:101A7300E4F54305440544054980CE22121CB2E433
:101A8300FEEFA806088002C333D8FC30E704D285F2
:101A93008002C28500D2840000000000C2840EBE12
:101AA30008DF0000D2850000D284000000308504E6
:101AB300C2068002D206C284000022E4FDFC7F8DB0
:101AC300FE121CD97F14E4FDFCFE121CD9E4FDFCBC
:101AD30022E924B0FFE433FEE4FDFC22AC07121D2F
:101AE3007D7F78121C1A021D05E548C3138549F052
:101AF300A42543FF22AE07121A7F200602C322AF9A
:101B030005121A82200602C322E4FDEDC395685034
:101B1300111202E3FF121A82200602C322121CEAE8
:101B230080E9121CC8D322EB70057528C18016BB4F
:101B330001057528D1800EBB02057528E18006BB1F
:101B430003037528F1E4F529FB7A00792875680207
:101B5300121AF89200A20022E4F9121AD4121ACD32
:101B6300FF121ACC7F10FE121CD9E4F5437D017CD1
:101B730000E4FFFE121CD90543E543C3948040ED06
:101B830009B908D622E4FDFCD285121D3DD2841288
:101B93001D3DEC25E0FCA285E4334204121D3DC249
:101BA30084121D3D0DBD08E5AF0422A907ED121AED
:101BB300D5121CD9E954F0C4540F7E004410FFE43D
:101BC300FDFC121CD9E9540FFF7E00E4FDFC021C4E
:101BD300D9E4FFD285FE00C2840000000000D28455
:101BE3000000EF25E0FF3085010F00000EBE08E680
:101BF300C284000022AC07121D1A7FA01219FEAF87
:101C0300041219FE121D1A7FA11219FE121B88ADB0
:101C130007121D73AF0522C284E4FEAD075305808E
:101C2300BD8004D2858002C285EF25E0FFD284C245
:101C3300840EBE08E622F9E43553FA1202E3543F58
:101C4300120329AB52E55422F9E43553FA0202E3B5
:101C5300AC05A907121D1A7FA01219FEAF011219B4
:101C6300FEAF041219FE021D73200404C285800214
:101C7300D285000000D2840000000000C28400006E
:101C8300228F4CA9057F017E00AD0119ED6009ADDE
:101C93004C7C0012033B80F12243892075985075D8
:101CA3008DFA858D8BE4F587D28ED2ACD2AF22D25A
:101CB3008500D2840000000000C2850000000000FF
:101CC300C284000022C28500D2840000000000D23A
:101CD300850000000022AB07AA06ED4C6003021D3D
:101CE30068AF03121D5D22740129F9E43AFA0D224B
:101CF300121BD4EF020329121C1A121D05AF041282
:101D03001C1AD284C28422141514DA0AA70D2303E1
:101D1300E61871132D1196D285121D38C285121D36
:101D23003DC284021D3DAD078562687FA2121AF889
:101D33009205A20522121D3DD2847F017E02DEFEA2
:101D4300DFFA22C2AC8F993099FDC299D2AC2275C9
:101D53005B0212196B9200A20022121ADFE4FF1237
:101D63001CFA021D86121ADF7F40121CFA021D861E
:101D7300C285121D38D285021D3DD284D285C2850B
:101D8300C28422D284C285D28522000000000000D2
:101D93000000002F000000000700070000147F145C
:101DA3007F1400242A7F2A1200626408132300365A
:101DB3004955225000000503000000001C22410089
:101DC300000041221C000014083E08140008083ECD
:101DD3000808000000A060000008080808080000C8
:101DE30060600000002010080402003E5149453E97
:101DF3000000427F400000426151494600214145B5
:101E03004B31001814127F10002745454539003C1B
:101E13004A494930000171090503003649494936E9
:101E230000064949291E00003636000000005636D8
:101E330000000008142241000014141414140000BC
:101E43004122140800020151090600324959513E4A
:101E5300007C1211127C007F49494936003E414102
:101E63004122007F4141221C007F49494941007FB3
:101E730009090901003E4149497A007F0808087FA2
:101E83000000417F4100002040413F01007F0814D2
:101E93002241007F40404040007F020C027F007FD0
:101EA3000408107F003E4141413E007F09090906B5
:101EB300003E4151215E007F0919294600464949E8
:101EC30049310001017F0101003F4040403F001FB5
:101ED3002040201F003F4038403F00631408146334
:101EE30000070870080700615149454300007F411E
:101EF300410000552A552A55000041417F00000446
:101F0300020102040040404040400000010204007E
:101F1300002054545478007F4844443800384444E3
:101F2300442000384444487F00385454541800086F
:101F33007E0901020018A4A4A47C007F080404788D
:101F43000000447D4000004080847D00007F102815
:101F530044000000417F4000007C04180478007CAA
:101F63000804047800384444443800FC242424182A
:101F73000018242418FC007C080404080048545466
:101F8300542000043F444020003C4040207C001C7F
:101F93002040201C003C4030403C00442810284492
:101FA300001CA0A0A07C004464544C4414141414DA
:021FB300141404
:00000001FF
